{
  "contractName": "Token",
  "abi": [
    {
      "inputs": [],
      "stateMutability": "nonpayable",
      "type": "constructor"
    },
    {
      "anonymous": false,
      "inputs": [
        {
          "indexed": true,
          "internalType": "address",
          "name": "account",
          "type": "address"
        },
        {
          "indexed": true,
          "internalType": "address",
          "name": "operator",
          "type": "address"
        },
        {
          "indexed": false,
          "internalType": "bool",
          "name": "approved",
          "type": "bool"
        }
      ],
      "name": "ApprovalForAll",
      "type": "event"
    },
    {
      "anonymous": false,
      "inputs": [
        {
          "indexed": true,
          "internalType": "address",
          "name": "from",
          "type": "address"
        },
        {
          "indexed": false,
          "internalType": "address",
          "name": "to",
          "type": "address"
        }
      ],
      "name": "MinterChanged",
      "type": "event"
    },
    {
      "anonymous": false,
      "inputs": [
        {
          "indexed": true,
          "internalType": "address",
          "name": "operator",
          "type": "address"
        },
        {
          "indexed": true,
          "internalType": "address",
          "name": "from",
          "type": "address"
        },
        {
          "indexed": true,
          "internalType": "address",
          "name": "to",
          "type": "address"
        },
        {
          "indexed": false,
          "internalType": "uint256[]",
          "name": "ids",
          "type": "uint256[]"
        },
        {
          "indexed": false,
          "internalType": "uint256[]",
          "name": "values",
          "type": "uint256[]"
        }
      ],
      "name": "TransferBatch",
      "type": "event"
    },
    {
      "anonymous": false,
      "inputs": [
        {
          "indexed": true,
          "internalType": "address",
          "name": "operator",
          "type": "address"
        },
        {
          "indexed": true,
          "internalType": "address",
          "name": "from",
          "type": "address"
        },
        {
          "indexed": true,
          "internalType": "address",
          "name": "to",
          "type": "address"
        },
        {
          "indexed": false,
          "internalType": "uint256",
          "name": "id",
          "type": "uint256"
        },
        {
          "indexed": false,
          "internalType": "uint256",
          "name": "value",
          "type": "uint256"
        }
      ],
      "name": "TransferSingle",
      "type": "event"
    },
    {
      "anonymous": false,
      "inputs": [
        {
          "indexed": false,
          "internalType": "string",
          "name": "value",
          "type": "string"
        },
        {
          "indexed": true,
          "internalType": "uint256",
          "name": "id",
          "type": "uint256"
        }
      ],
      "name": "URI",
      "type": "event"
    },
    {
      "inputs": [
        {
          "internalType": "address",
          "name": "account",
          "type": "address"
        },
        {
          "internalType": "uint256",
          "name": "id",
          "type": "uint256"
        }
      ],
      "name": "balanceOf",
      "outputs": [
        {
          "internalType": "uint256",
          "name": "",
          "type": "uint256"
        }
      ],
      "stateMutability": "view",
      "type": "function"
    },
    {
      "inputs": [
        {
          "internalType": "address[]",
          "name": "accounts",
          "type": "address[]"
        },
        {
          "internalType": "uint256[]",
          "name": "ids",
          "type": "uint256[]"
        }
      ],
      "name": "balanceOfBatch",
      "outputs": [
        {
          "internalType": "uint256[]",
          "name": "",
          "type": "uint256[]"
        }
      ],
      "stateMutability": "view",
      "type": "function"
    },
    {
      "inputs": [
        {
          "internalType": "address",
          "name": "account",
          "type": "address"
        },
        {
          "internalType": "address",
          "name": "operator",
          "type": "address"
        }
      ],
      "name": "isApprovedForAll",
      "outputs": [
        {
          "internalType": "bool",
          "name": "",
          "type": "bool"
        }
      ],
      "stateMutability": "view",
      "type": "function"
    },
    {
      "inputs": [
        {
          "internalType": "uint256",
          "name": "",
          "type": "uint256"
        }
      ],
      "name": "itemPrices",
      "outputs": [
        {
          "internalType": "uint256",
          "name": "",
          "type": "uint256"
        }
      ],
      "stateMutability": "view",
      "type": "function"
    },
    {
      "inputs": [],
      "name": "minter",
      "outputs": [
        {
          "internalType": "address",
          "name": "",
          "type": "address"
        }
      ],
      "stateMutability": "view",
      "type": "function"
    },
    {
      "inputs": [
        {
          "internalType": "address",
          "name": "from",
          "type": "address"
        },
        {
          "internalType": "address",
          "name": "to",
          "type": "address"
        },
        {
          "internalType": "uint256[]",
          "name": "ids",
          "type": "uint256[]"
        },
        {
          "internalType": "uint256[]",
          "name": "amounts",
          "type": "uint256[]"
        },
        {
          "internalType": "bytes",
          "name": "data",
          "type": "bytes"
        }
      ],
      "name": "safeBatchTransferFrom",
      "outputs": [],
      "stateMutability": "nonpayable",
      "type": "function"
    },
    {
      "inputs": [
        {
          "internalType": "address",
          "name": "from",
          "type": "address"
        },
        {
          "internalType": "address",
          "name": "to",
          "type": "address"
        },
        {
          "internalType": "uint256",
          "name": "id",
          "type": "uint256"
        },
        {
          "internalType": "uint256",
          "name": "amount",
          "type": "uint256"
        },
        {
          "internalType": "bytes",
          "name": "data",
          "type": "bytes"
        }
      ],
      "name": "safeTransferFrom",
      "outputs": [],
      "stateMutability": "nonpayable",
      "type": "function"
    },
    {
      "inputs": [
        {
          "internalType": "address",
          "name": "operator",
          "type": "address"
        },
        {
          "internalType": "bool",
          "name": "approved",
          "type": "bool"
        }
      ],
      "name": "setApprovalForAll",
      "outputs": [],
      "stateMutability": "nonpayable",
      "type": "function"
    },
    {
      "inputs": [
        {
          "internalType": "bytes4",
          "name": "interfaceId",
          "type": "bytes4"
        }
      ],
      "name": "supportsInterface",
      "outputs": [
        {
          "internalType": "bool",
          "name": "",
          "type": "bool"
        }
      ],
      "stateMutability": "view",
      "type": "function"
    },
    {
      "inputs": [
        {
          "internalType": "uint256",
          "name": "",
          "type": "uint256"
        }
      ],
      "name": "uri",
      "outputs": [
        {
          "internalType": "string",
          "name": "",
          "type": "string"
        }
      ],
      "stateMutability": "view",
      "type": "function"
    },
    {
      "inputs": [
        {
          "internalType": "address",
          "name": "NFTApp",
          "type": "address"
        }
      ],
      "name": "passMinterRole",
      "outputs": [
        {
          "internalType": "bool",
          "name": "",
          "type": "bool"
        }
      ],
      "stateMutability": "nonpayable",
      "type": "function"
    }
  ],
  "bytecode": "0x60806040523480156200001157600080fd5b50604051806020016040528060008152506200003a6301ffc9a760e01b620000c360201b60201c565b6200004b81620001cc60201b60201c565b6200006363d9b67a2660e01b620000c360201b60201c565b6200007b630e89341c60e01b620000c360201b60201c565b5033600560006101000a81548173ffffffffffffffffffffffffffffffffffffffff021916908373ffffffffffffffffffffffffffffffffffffffff1602179055506200029e565b63ffffffff60e01b817bffffffffffffffffffffffffffffffffffffffffffffffffffffffff1916141562000160576040517f08c379a000000000000000000000000000000000000000000000000000000000815260040180806020018281038252601c8152602001807f4552433136353a20696e76616c696420696e746572666163652069640000000081525060200191505060405180910390fd5b6001600080837bffffffffffffffffffffffffffffffffffffffffffffffffffffffff19167bffffffffffffffffffffffffffffffffffffffffffffffffffffffff1916815260200190815260200160002060006101000a81548160ff02191690831515021790555050565b8060039080519060200190620001e4929190620001e8565b5050565b828054600181600116156101000203166002900490600052602060002090601f0160209004810192826200022057600085556200026c565b82601f106200023b57805160ff19168380011785556200026c565b828001600101855582156200026c579182015b828111156200026b5782518255916020019190600101906200024e565b5b5090506200027b91906200027f565b5090565b5b808211156200029a57600081600090555060010162000280565b5090565b6123af80620002ae6000396000f3fe608060405234801561001057600080fd5b50600436106100a85760003560e01c80634e1273f4116100715780634e1273f414610470578063a22cb46514610611578063bf91ad9e14610661578063d7fc5b15146106a3578063e985e9c5146106fd578063f242432a14610777576100a8565b8062fdd58e146100ad57806301ffc9a71461010f57806307546172146101725780630e89341c146101a65780632eb2c2d61461024d575b600080fd5b6100f9600480360360408110156100c357600080fd5b81019080803573ffffffffffffffffffffffffffffffffffffffff16906020019092919080359060200190929190505050610886565b6040518082815260200191505060405180910390f35b61015a6004803603602081101561012557600080fd5b8101908080357bffffffffffffffffffffffffffffffffffffffffffffffffffffffff19169060200190929190505050610966565b60405180821515815260200191505060405180910390f35b61017a6109cd565b604051808273ffffffffffffffffffffffffffffffffffffffff16815260200191505060405180910390f35b6101d2600480360360208110156101bc57600080fd5b81019080803590602001909291905050506109f3565b6040518080602001828103825283818151815260200191508051906020019080838360005b838110156102125780820151818401526020810190506101f7565b50505050905090810190601f16801561023f5780820380516001836020036101000a031916815260200191505b509250505060405180910390f35b61046e600480360360a081101561026357600080fd5b81019080803573ffffffffffffffffffffffffffffffffffffffff169060200190929190803573ffffffffffffffffffffffffffffffffffffffff169060200190929190803590602001906401000000008111156102c057600080fd5b8201836020820111156102d257600080fd5b803590602001918460208302840111640100000000831117156102f457600080fd5b919080806020026020016040519081016040528093929190818152602001838360200280828437600081840152601f19601f8201169050808301925050505050505091929192908035906020019064010000000081111561035457600080fd5b82018360208201111561036657600080fd5b8035906020019184602083028401116401000000008311171561038857600080fd5b919080806020026020016040519081016040528093929190818152602001838360200280828437600081840152601f19601f820116905080830192505050505050509192919290803590602001906401000000008111156103e857600080fd5b8201836020820111156103fa57600080fd5b8035906020019184600183028401116401000000008311171561041c57600080fd5b91908080601f016020809104026020016040519081016040528093929190818152602001838380828437600081840152601f19601f820116905080830192505050505050509192919290505050610a97565b005b6105ba6004803603604081101561048657600080fd5b81019080803590602001906401000000008111156104a357600080fd5b8201836020820111156104b557600080fd5b803590602001918460208302840111640100000000831117156104d757600080fd5b919080806020026020016040519081016040528093929190818152602001838360200280828437600081840152601f19601f8201169050808301925050505050505091929192908035906020019064010000000081111561053757600080fd5b82018360208201111561054957600080fd5b8035906020019184602083028401116401000000008311171561056b57600080fd5b919080806020026020016040519081016040528093929190818152602001838360200280828437600081840152601f19601f820116905080830192505050505050509192919290505050610f22565b6040518080602001828103825283818151815260200191508051906020019060200280838360005b838110156105fd5780820151818401526020810190506105e2565b505050509050019250505060405180910390f35b61065f6004803603604081101561062757600080fd5b81019080803573ffffffffffffffffffffffffffffffffffffffff169060200190929190803515159060200190929190505050611114565b005b61068d6004803603602081101561067757600080fd5b81019080803590602001909291905050506112ad565b6040518082815260200191505060405180910390f35b6106e5600480360360208110156106b957600080fd5b81019080803573ffffffffffffffffffffffffffffffffffffffff1690602001909291905050506112c5565b60405180821515815260200191505060405180910390f35b61075f6004803603604081101561071357600080fd5b81019080803573ffffffffffffffffffffffffffffffffffffffff169060200190929190803573ffffffffffffffffffffffffffffffffffffffff16906020019092919050505061141b565b60405180821515815260200191505060405180910390f35b610884600480360360a081101561078d57600080fd5b81019080803573ffffffffffffffffffffffffffffffffffffffff169060200190929190803573ffffffffffffffffffffffffffffffffffffffff1690602001909291908035906020019092919080359060200190929190803590602001906401000000008111156107fe57600080fd5b82018360208201111561081057600080fd5b8035906020019184600183028401116401000000008311171561083257600080fd5b91908080601f016020809104026020016040519081016040528093929190818152602001838380828437600081840152601f19601f8201169050808301925050505050505091929192905050506114af565b005b60008073ffffffffffffffffffffffffffffffffffffffff168373ffffffffffffffffffffffffffffffffffffffff16141561090d576040517f08c379a000000000000000000000000000000000000000000000000000000000815260040180806020018281038252602b8152602001806121cd602b913960400191505060405180910390fd5b6001600083815260200190815260200160002060008473ffffffffffffffffffffffffffffffffffffffff1673ffffffffffffffffffffffffffffffffffffffff16815260200190815260200160002054905092915050565b6000806000837bffffffffffffffffffffffffffffffffffffffffffffffffffffffff19167bffffffffffffffffffffffffffffffffffffffffffffffffffffffff1916815260200190815260200160002060009054906101000a900460ff169050919050565b600560009054906101000a900473ffffffffffffffffffffffffffffffffffffffff1681565b606060038054600181600116156101000203166002900480601f016020809104026020016040519081016040528092919081815260200182805460018160011615610100020316600290048015610a8b5780601f10610a6057610100808354040283529160200191610a8b565b820191906000526020600020905b815481529060010190602001808311610a6e57829003601f168201915b50505050509050919050565b8151835114610af1576040517f08c379a00000000000000000000000000000000000000000000000000000000081526004018080602001828103825260288152602001806123256028913960400191505060405180910390fd5b600073ffffffffffffffffffffffffffffffffffffffff168473ffffffffffffffffffffffffffffffffffffffff161415610b77576040517f08c379a00000000000000000000000000000000000000000000000000000000081526004018080602001828103825260258152602001806122526025913960400191505060405180910390fd5b610b7f611824565b73ffffffffffffffffffffffffffffffffffffffff168573ffffffffffffffffffffffffffffffffffffffff161480610bc55750610bc485610bbf611824565b61141b565b5b610c1a576040517f08c379a00000000000000000000000000000000000000000000000000000000081526004018080602001828103825260328152602001806122776032913960400191505060405180910390fd5b6000610c24611824565b9050610c3481878787878761182c565b60005b8451811015610e05576000858281518110610c4e57fe5b602002602001015190506000858381518110610c6657fe5b60200260200101519050610ced816040518060600160405280602a81526020016122a9602a91396001600086815260200190815260200160002060008d73ffffffffffffffffffffffffffffffffffffffff1673ffffffffffffffffffffffffffffffffffffffff168152602001908152602001600020546118349092919063ffffffff16565b6001600084815260200190815260200160002060008b73ffffffffffffffffffffffffffffffffffffffff1673ffffffffffffffffffffffffffffffffffffffff16815260200190815260200160002081905550610da4816001600085815260200190815260200160002060008b73ffffffffffffffffffffffffffffffffffffffff1673ffffffffffffffffffffffffffffffffffffffff168152602001908152602001600020546118f490919063ffffffff16565b6001600084815260200190815260200160002060008a73ffffffffffffffffffffffffffffffffffffffff1673ffffffffffffffffffffffffffffffffffffffff168152602001908152602001600020819055505050806001019050610c37565b508473ffffffffffffffffffffffffffffffffffffffff168673ffffffffffffffffffffffffffffffffffffffff168273ffffffffffffffffffffffffffffffffffffffff167f4a39dc06d4c0dbc64b70af90fd698a233a518aa5d07e595d983b8c0526c8f7fb8787604051808060200180602001838103835285818151815260200191508051906020019060200280838360005b83811015610eb5578082015181840152602081019050610e9a565b50505050905001838103825284818151815260200191508051906020019060200280838360005b83811015610ef7578082015181840152602081019050610edc565b5050505090500194505050505060405180910390a4610f1a81878787878761197c565b505050505050565b60608151835114610f7e576040517f08c379a00000000000000000000000000000000000000000000000000000000081526004018080602001828103825260298152602001806122fc6029913960400191505060405180910390fd5b6000835167ffffffffffffffff81118015610f9857600080fd5b50604051908082528060200260200182016040528015610fc75781602001602082028036833780820191505090505b50905060005b845181101561110957600073ffffffffffffffffffffffffffffffffffffffff16858281518110610ffa57fe5b602002602001015173ffffffffffffffffffffffffffffffffffffffff16141561106f576040517f08c379a00000000000000000000000000000000000000000000000000000000081526004018080602001828103825260318152602001806121f86031913960400191505060405180910390fd5b6001600085838151811061107f57fe5b6020026020010151815260200190815260200160002060008683815181106110a357fe5b602002602001015173ffffffffffffffffffffffffffffffffffffffff1673ffffffffffffffffffffffffffffffffffffffff168152602001908152602001600020548282815181106110f257fe5b602002602001018181525050806001019050610fcd565b508091505092915050565b8173ffffffffffffffffffffffffffffffffffffffff16611133611824565b73ffffffffffffffffffffffffffffffffffffffff1614156111a0576040517f08c379a00000000000000000000000000000000000000000000000000000000081526004018080602001828103825260298152602001806122d36029913960400191505060405180910390fd5b80600260006111ad611824565b73ffffffffffffffffffffffffffffffffffffffff1673ffffffffffffffffffffffffffffffffffffffff16815260200190815260200160002060008473ffffffffffffffffffffffffffffffffffffffff1673ffffffffffffffffffffffffffffffffffffffff16815260200190815260200160002060006101000a81548160ff0219169083151502179055508173ffffffffffffffffffffffffffffffffffffffff1661125a611824565b73ffffffffffffffffffffffffffffffffffffffff167f17307eab39ab6107e8899845ad3d59bd9653f200f220920489ca2b5937696c318360405180821515815260200191505060405180910390a35050565b60046020528060005260406000206000915090505481565b6000600560009054906101000a900473ffffffffffffffffffffffffffffffffffffffff1673ffffffffffffffffffffffffffffffffffffffff163373ffffffffffffffffffffffffffffffffffffffff161461136d576040517f08c379a000000000000000000000000000000000000000000000000000000000815260040180806020018281038252602d81526020018061234d602d913960400191505060405180910390fd5b81600560006101000a81548173ffffffffffffffffffffffffffffffffffffffff021916908373ffffffffffffffffffffffffffffffffffffffff1602179055503373ffffffffffffffffffffffffffffffffffffffff167f3b0007eb941cf645526cbb3a4fdaecda9d28ce4843167d9263b536a1f1edc0f683604051808273ffffffffffffffffffffffffffffffffffffffff16815260200191505060405180910390a260019050919050565b6000600260008473ffffffffffffffffffffffffffffffffffffffff1673ffffffffffffffffffffffffffffffffffffffff16815260200190815260200160002060008373ffffffffffffffffffffffffffffffffffffffff1673ffffffffffffffffffffffffffffffffffffffff16815260200190815260200160002060009054906101000a900460ff16905092915050565b600073ffffffffffffffffffffffffffffffffffffffff168473ffffffffffffffffffffffffffffffffffffffff161415611535576040517f08c379a00000000000000000000000000000000000000000000000000000000081526004018080602001828103825260258152602001806122526025913960400191505060405180910390fd5b61153d611824565b73ffffffffffffffffffffffffffffffffffffffff168573ffffffffffffffffffffffffffffffffffffffff16148061158357506115828561157d611824565b61141b565b5b6115d8576040517f08c379a00000000000000000000000000000000000000000000000000000000081526004018080602001828103825260298152602001806122296029913960400191505060405180910390fd5b60006115e2611824565b90506116028187876115f388611d0b565b6115fc88611d0b565b8761182c565b61167f836040518060600160405280602a81526020016122a9602a91396001600088815260200190815260200160002060008a73ffffffffffffffffffffffffffffffffffffffff1673ffffffffffffffffffffffffffffffffffffffff168152602001908152602001600020546118349092919063ffffffff16565b6001600086815260200190815260200160002060008873ffffffffffffffffffffffffffffffffffffffff1673ffffffffffffffffffffffffffffffffffffffff16815260200190815260200160002081905550611736836001600087815260200190815260200160002060008873ffffffffffffffffffffffffffffffffffffffff1673ffffffffffffffffffffffffffffffffffffffff168152602001908152602001600020546118f490919063ffffffff16565b6001600086815260200190815260200160002060008773ffffffffffffffffffffffffffffffffffffffff1673ffffffffffffffffffffffffffffffffffffffff168152602001908152602001600020819055508473ffffffffffffffffffffffffffffffffffffffff168673ffffffffffffffffffffffffffffffffffffffff168273ffffffffffffffffffffffffffffffffffffffff167fc3d58168c5ae7397731d063d5bbf3d657854427343f4c083240f7aacaa2d0f628787604051808381526020018281526020019250505060405180910390a461181c818787878787611d7c565b505050505050565b600033905090565b505050505050565b60008383111582906118e1576040517f08c379a00000000000000000000000000000000000000000000000000000000081526004018080602001828103825283818151815260200191508051906020019080838360005b838110156118a657808201518184015260208101905061188b565b50505050905090810190601f1680156118d35780820380516001836020036101000a031916815260200191505b509250505060405180910390fd5b5060008385039050809150509392505050565b600080828401905083811015611972576040517f08c379a000000000000000000000000000000000000000000000000000000000815260040180806020018281038252601b8152602001807f536166654d6174683a206164646974696f6e206f766572666c6f77000000000081525060200191505060405180910390fd5b8091505092915050565b61199b8473ffffffffffffffffffffffffffffffffffffffff16612089565b15611d03578373ffffffffffffffffffffffffffffffffffffffff1663bc197c8187878686866040518663ffffffff1660e01b8152600401808673ffffffffffffffffffffffffffffffffffffffff1681526020018573ffffffffffffffffffffffffffffffffffffffff168152602001806020018060200180602001848103845287818151815260200191508051906020019060200280838360005b83811015611a53578082015181840152602081019050611a38565b50505050905001848103835286818151815260200191508051906020019060200280838360005b83811015611a95578082015181840152602081019050611a7a565b50505050905001848103825285818151815260200191508051906020019080838360005b83811015611ad4578082015181840152602081019050611ab9565b50505050905090810190601f168015611b015780820380516001836020036101000a031916815260200191505b5098505050505050505050602060405180830381600087803b158015611b2657600080fd5b505af1925050508015611b5a57506040513d6020811015611b4657600080fd5b810190808051906020019092919050505060015b611c6457611b666120ba565b80611b715750611c13565b806040517f08c379a00000000000000000000000000000000000000000000000000000000081526004018080602001828103825283818151815260200191508051906020019080838360005b83811015611bd8578082015181840152602081019050611bbd565b50505050905090810190601f168015611c055780820380516001836020036101000a031916815260200191505b509250505060405180910390fd5b6040517f08c379a00000000000000000000000000000000000000000000000000000000081526004018080602001828103825260348152602001806121716034913960400191505060405180910390fd5b63bc197c8160e01b7bffffffffffffffffffffffffffffffffffffffffffffffffffffffff1916817bffffffffffffffffffffffffffffffffffffffffffffffffffffffff191614611d01576040517f08c379a00000000000000000000000000000000000000000000000000000000081526004018080602001828103825260288152602001806121a56028913960400191505060405180910390fd5b505b505050505050565b60606000600167ffffffffffffffff81118015611d2757600080fd5b50604051908082528060200260200182016040528015611d565781602001602082028036833780820191505090505b5090508281600081518110611d6757fe5b60200260200101818152505080915050919050565b611d9b8473ffffffffffffffffffffffffffffffffffffffff16612089565b15612081578373ffffffffffffffffffffffffffffffffffffffff1663f23a6e6187878686866040518663ffffffff1660e01b8152600401808673ffffffffffffffffffffffffffffffffffffffff1681526020018573ffffffffffffffffffffffffffffffffffffffff16815260200184815260200183815260200180602001828103825283818151815260200191508051906020019080838360005b83811015611e54578082015181840152602081019050611e39565b50505050905090810190601f168015611e815780820380516001836020036101000a031916815260200191505b509650505050505050602060405180830381600087803b158015611ea457600080fd5b505af1925050508015611ed857506040513d6020811015611ec457600080fd5b810190808051906020019092919050505060015b611fe257611ee46120ba565b80611eef5750611f91565b806040517f08c379a00000000000000000000000000000000000000000000000000000000081526004018080602001828103825283818151815260200191508051906020019080838360005b83811015611f56578082015181840152602081019050611f3b565b50505050905090810190601f168015611f835780820380516001836020036101000a031916815260200191505b509250505060405180910390fd5b6040517f08c379a00000000000000000000000000000000000000000000000000000000081526004018080602001828103825260348152602001806121716034913960400191505060405180910390fd5b63f23a6e6160e01b7bffffffffffffffffffffffffffffffffffffffffffffffffffffffff1916817bffffffffffffffffffffffffffffffffffffffffffffffffffffffff19161461207f576040517f08c379a00000000000000000000000000000000000000000000000000000000081526004018080602001828103825260288152602001806121a56028913960400191505060405180910390fd5b505b505050505050565b600080823b905060008111915050919050565b6000601f19601f8301169050919050565b60008160e01c9050919050565b600060443d10156120ca5761216d565b60046000803e6120db6000516120ad565b6308c379a081146120ec575061216d565b60405160043d036004823e80513d602482011167ffffffffffffffff821117156121185750505061216d565b808201805167ffffffffffffffff81111561213757505050505061216d565b8060208301013d85018111156121525750505050505061216d565b61215b8261209c565b60208401016040528296505050505050505b9056fe455243313135353a207472616e7366657220746f206e6f6e2045524331313535526563656976657220696d706c656d656e746572455243313135353a204552433131353552656365697665722072656a656374656420746f6b656e73455243313135353a2062616c616e636520717565727920666f7220746865207a65726f2061646472657373455243313135353a2062617463682062616c616e636520717565727920666f7220746865207a65726f2061646472657373455243313135353a2063616c6c6572206973206e6f74206f776e6572206e6f7220617070726f766564455243313135353a207472616e7366657220746f20746865207a65726f2061646472657373455243313135353a207472616e736665722063616c6c6572206973206e6f74206f776e6572206e6f7220617070726f766564455243313135353a20696e73756666696369656e742062616c616e636520666f72207472616e73666572455243313135353a2073657474696e6720617070726f76616c2073746174757320666f722073656c66455243313135353a206163636f756e747320616e6420696473206c656e677468206d69736d61746368455243313135353a2069647320616e6420616d6f756e7473206c656e677468206d69736d617463684572726f722c206f6e6c79206f776e65722063616e206368616e67652070617373206d696e74657220726f6c65a2646970667358221220435826ab1b52736d73d2b119475ffe3c4486d46eeae523c68433b3a386a0a1d864736f6c63430007060033",
  "immutableReferences": {},
  "source": "// SPDX-License-Identifier: MIT\r\npragma solidity >=0.6.0 <0.8.0;\r\n\r\nimport \"@openzeppelin/contracts/token/ERC1155/ERC1155.sol\";\r\nimport \"@openzeppelin/contracts/utils/Counters.sol\";\r\n\r\ncontract Token is ERC1155 {\r\n   using Counters for Counters.Counter;\r\n   mapping(uint256 => uint256) public itemPrices;\r\n\r\n  address public minter;\r\n  event MinterChanged(address indexed from, address to);\r\n\r\n   constructor() public ERC1155(\"\") {\r\n         minter = msg.sender;\r\n   }\r\n\r\n   \r\n     function passMinterRole(address NFTApp) public returns(bool) {\r\n    require(msg.sender == minter, \"Error, only owner can change pass minter role\");\r\n    minter = NFTApp;\r\n    emit MinterChanged(msg.sender, NFTApp);\r\n    return true;\r\n  }\r\n\r\n}",
  "sourcePath": "D:\\DOSYALARIM\\Kodlar\\ItemMarket\\src\\contracts\\Token.sol",
  "compiler": {
    "name": "solc",
    "version": "0.7.6+commit.7338295f.Emscripten.clang"
  },
  "schemaVersion": "3.4.3",
  "updatedAt": "2021-10-07T08:09:45.940Z",
  "devdoc": {
    "kind": "dev",
    "methods": {
      "balanceOf(address,uint256)": {
        "details": "See {IERC1155-balanceOf}. Requirements: - `account` cannot be the zero address."
      },
      "balanceOfBatch(address[],uint256[])": {
        "details": "See {IERC1155-balanceOfBatch}. Requirements: - `accounts` and `ids` must have the same length."
      },
      "isApprovedForAll(address,address)": {
        "details": "See {IERC1155-isApprovedForAll}."
      },
      "safeBatchTransferFrom(address,address,uint256[],uint256[],bytes)": {
        "details": "See {IERC1155-safeBatchTransferFrom}."
      },
      "safeTransferFrom(address,address,uint256,uint256,bytes)": {
        "details": "See {IERC1155-safeTransferFrom}."
      },
      "setApprovalForAll(address,bool)": {
        "details": "See {IERC1155-setApprovalForAll}."
      },
      "supportsInterface(bytes4)": {
        "details": "See {IERC165-supportsInterface}. Time complexity O(1), guaranteed to always use less than 30 000 gas."
      },
      "uri(uint256)": {
        "details": "See {IERC1155MetadataURI-uri}. This implementation returns the same URI for *all* token types. It relies on the token type ID substitution mechanism https://eips.ethereum.org/EIPS/eip-1155#metadata[defined in the EIP]. Clients calling this function must replace the `\\{id\\}` substring with the actual token type ID."
      }
    },
    "version": 1
  },
  "userdoc": {
    "kind": "user",
    "methods": {},
    "version": 1
  }
}